{
  "transactions": [
    {
      "hash": "0xaa6941bb05382ea3c81d58d8bf10b7691d92294a52ea55aa97c74224bdbd6c53",
      "transactionType": "CALL",
      "contractName": null,
      "contractAddress": "0xba2d3e3e54c17fb3344c5d433af39bf2e01fe91f",
      "function": "applyChainUpdates(uint64[],(uint64,bytes[],bytes,(bool,uint128,uint128),(bool,uint128,uint128))[])",
      "arguments": [
        "[]",
        "[(6898391096552792247, [0x0000000000000000000000003896c8fc501ebfa40578fe1716081ec48201c017], 0x0000000000000000000000000b24ed66b4bd34d6c9bf070f108b8e4b2786a06b, (false, 0, 0), (false, 0, 0))]"
      ],
      "transaction": {
        "from": "0xd4bd9a13058a2ff4da5cf699e51432ada67aa84b",
        "to": "0xba2d3e3e54c17fb3344c5d433af39bf2e01fe91f",
        "gas": "0x6db12",
        "value": "0x0",
        "input": "0xe8a1da17000000000000000000000000000000000000000000000000000000000000004000000000000000000000000000000000000000000000000000000000000000600000000000000000000000000000000000000000000000000000000000000000000000000000000000000000000000000000000000000000000000000000000100000000000000000000000000000000000000000000000000000000000000200000000000000000000000000000000000000000000000005fbc02272fbf20b7000000000000000000000000000000000000000000000000000000000000012000000000000000000000000000000000000000000000000000000000000001a00000000000000000000000000000000000000000000000000000000000000000000000000000000000000000000000000000000000000000000000000000000000000000000000000000000000000000000000000000000000000000000000000000000000000000000000000000000000000000000000000000000000000000000000000000000000000000000000000000000000000000000000000000000000000000000000000000000000000000000000000000000000000000000000000000000000000000000000000000000000000000000000000000000000000001000000000000000000000000000000000000000000000000000000000000002000000000000000000000000000000000000000000000000000000000000000200000000000000000000000003896c8fc501ebfa40578fe1716081ec48201c01700000000000000000000000000000000000000000000000000000000000000200000000000000000000000000b24ed66b4bd34d6c9bf070f108b8e4b2786a06b",
        "nonce": "0x4a",
        "chainId": "0xaa36a7"
      },
      "additionalContracts": [],
      "isFixedGasLimit": false
    }
  ],
  "receipts": [
    {
      "status": "0x1",
      "cumulativeGasUsed": "0xd43a4e",
      "logs": [
        {
          "address": "0xba2d3e3e54c17fb3344c5d433af39bf2e01fe91f",
          "topics": [
            "0x7d628c9a1796743d365ab521a8b2a4686e419b3269919dc9145ea2ce853b54ea",
            "0x0000000000000000000000000000000000000000000000005fbc02272fbf20b7"
          ],
          "data": "0x000000000000000000000000000000000000000000000000000000000000002000000000000000000000000000000000000000000000000000000000000000200000000000000000000000003896c8fc501ebfa40578fe1716081ec48201c017",
          "blockHash": "0xa11ef75219c8ebd2831408cdefeb4493bbdbd08c1e000f2497f7c68cfbf134bc",
          "blockNumber": "0x9e8a2a",
          "blockTimestamp": "0x69a991dc",
          "transactionHash": "0xaa6941bb05382ea3c81d58d8bf10b7691d92294a52ea55aa97c74224bdbd6c53",
          "transactionIndex": "0x70",
          "logIndex": "0xc0",
          "removed": false
        },
        {
          "address": "0xba2d3e3e54c17fb3344c5d433af39bf2e01fe91f",
          "topics": [
            "0x8d340f17e19058004c20453540862a9c62778504476f6756755cb33bcd6c38c2"
          ],
          "data": "0x0000000000000000000000000000000000000000000000005fbc02272fbf20b7000000000000000000000000000000000000000000000000000000000000010000000000000000000000000000000000000000000000000000000000000000000000000000000000000000000000000000000000000000000000000000000000000000000000000000000000000000000000000000000000000000000000000000000000000000000000000000000000000000000000000000000000000000000000000000000000000000000000000000000000000000000000000000000000000000000000000000000000000000000000000000000000000000000000000000000000000000000000000000000000000000000000000000000000000000200000000000000000000000000b24ed66b4bd34d6c9bf070f108b8e4b2786a06b",
          "blockHash": "0xa11ef75219c8ebd2831408cdefeb4493bbdbd08c1e000f2497f7c68cfbf134bc",
          "blockNumber": "0x9e8a2a",
          "blockTimestamp": "0x69a991dc",
          "transactionHash": "0xaa6941bb05382ea3c81d58d8bf10b7691d92294a52ea55aa97c74224bdbd6c53",
          "transactionIndex": "0x70",
          "logIndex": "0xc1",
          "removed": false
        }
      ],
      "logsBloom": "0x00000000000000400000000000000000000000000000000000000000000000000000000000000000000000000000000000000000000000000004000000000004000000000000000000000000040000000000000000000000000000000000000000000000000000000000000000002040000000000000000000000000000000400000000000000000000000000000000000000000000000000000000000000000000000000000008000000000000000040000000000000000000000000000100000000000000000000000000000000000000000000000000000000000000000000000000000000000000000000000000000000000008000000100000000000000",
      "type": "0x2",
      "transactionHash": "0xaa6941bb05382ea3c81d58d8bf10b7691d92294a52ea55aa97c74224bdbd6c53",
      "transactionIndex": "0x70",
      "blockHash": "0xa11ef75219c8ebd2831408cdefeb4493bbdbd08c1e000f2497f7c68cfbf134bc",
      "blockNumber": "0x9e8a2a",
      "gasUsed": "0x4f6a4",
      "effectiveGasPrice": "0xf424a",
      "from": "0xd4bd9a13058a2ff4da5cf699e51432ada67aa84b",
      "to": "0xba2d3e3e54c17fb3344c5d433af39bf2e01fe91f",
      "contractAddress": null
    }
  ],
  "libraries": [],
  "pending": [],
  "returns": {},
  "timestamp": 1772720605361,
  "chain": 11155111,
  "commit": "b188a7d"
}