{
  "transactions": [
    {
      "hash": "0xb9219a6859ab82043c00f913696a4635571f09d60fff76811259c49830bb2a1c",
      "transactionType": "CALL",
      "contractName": null,
      "contractAddress": "0xbf376784e22ed8662e94f3014d69876435af8990",
      "function": "applyChainUpdates(uint64[],(uint64,bytes[],bytes,(bool,uint128,uint128),(bool,uint128,uint128))[])",
      "arguments": [
        "[]",
        "[(6898391096552792247, [0x000000000000000000000000c486a8550bb7cef782ca13ec5cad7556c4e37e23], 0x000000000000000000000000dc95ef05061de480940200c84253e465c26bd267, (false, 0, 0), (false, 0, 0))]"
      ],
      "transaction": {
        "from": "0xd4bd9a13058a2ff4da5cf699e51432ada67aa84b",
        "to": "0xbf376784e22ed8662e94f3014d69876435af8990",
        "gas": "0x6d8a2",
        "value": "0x0",
        "input": "0xe8a1da17000000000000000000000000000000000000000000000000000000000000004000000000000000000000000000000000000000000000000000000000000000600000000000000000000000000000000000000000000000000000000000000000000000000000000000000000000000000000000000000000000000000000000100000000000000000000000000000000000000000000000000000000000000200000000000000000000000000000000000000000000000005fbc02272fbf20b7000000000000000000000000000000000000000000000000000000000000012000000000000000000000000000000000000000000000000000000000000001a0000000000000000000000000000000000000000000000000000000000000000000000000000000000000000000000000000000000000000000000000000000000000000000000000000000000000000000000000000000000000000000000000000000000000000000000000000000000000000000000000000000000000000000000000000000000000000000000000000000000000000000000000000000000000000000000000000000000000000000000000000000000000000000000000000000000000000000000000000000000000000000000000000000000000000100000000000000000000000000000000000000000000000000000000000000200000000000000000000000000000000000000000000000000000000000000020000000000000000000000000c486a8550bb7cef782ca13ec5cad7556c4e37e230000000000000000000000000000000000000000000000000000000000000020000000000000000000000000dc95ef05061de480940200c84253e465c26bd267",
        "nonce": "0x93",
        "chainId": "0xaa36a7"
      },
      "additionalContracts": [],
      "isFixedGasLimit": false
    }
  ],
  "receipts": [
    {
      "status": "0x1",
      "cumulativeGasUsed": "0x5fbe05",
      "logs": [
        {
          "address": "0xbf376784e22ed8662e94f3014d69876435af8990",
          "topics": [
            "0x7d628c9a1796743d365ab521a8b2a4686e419b3269919dc9145ea2ce853b54ea",
            "0x0000000000000000000000000000000000000000000000005fbc02272fbf20b7"
          ],
          "data": "0x00000000000000000000000000000000000000000000000000000000000000200000000000000000000000000000000000000000000000000000000000000020000000000000000000000000c486a8550bb7cef782ca13ec5cad7556c4e37e23",
          "blockHash": "0x4bb6682463bb27a360e46115f58a77423d20c3474efb04bcfe12de8aa2181200",
          "blockNumber": "0x9ec969",
          "blockTimestamp": "0x69acea80",
          "transactionHash": "0xb9219a6859ab82043c00f913696a4635571f09d60fff76811259c49830bb2a1c",
          "transactionIndex": "0x4b",
          "logIndex": "0x4d",
          "removed": false
        },
        {
          "address": "0xbf376784e22ed8662e94f3014d69876435af8990",
          "topics": [
            "0x8d340f17e19058004c20453540862a9c62778504476f6756755cb33bcd6c38c2"
          ],
          "data": "0x0000000000000000000000000000000000000000000000005fbc02272fbf20b700000000000000000000000000000000000000000000000000000000000001000000000000000000000000000000000000000000000000000000000000000000000000000000000000000000000000000000000000000000000000000000000000000000000000000000000000000000000000000000000000000000000000000000000000000000000000000000000000000000000000000000000000000000000000000000000000000000000000000000000000000000000000000000000000000000000000000000000000000000000000000000000000000000000000000000000000000000000000000000000000000000000000000000000000000020000000000000000000000000dc95ef05061de480940200c84253e465c26bd267",
          "blockHash": "0x4bb6682463bb27a360e46115f58a77423d20c3474efb04bcfe12de8aa2181200",
          "blockNumber": "0x9ec969",
          "blockTimestamp": "0x69acea80",
          "transactionHash": "0xb9219a6859ab82043c00f913696a4635571f09d60fff76811259c49830bb2a1c",
          "transactionIndex": "0x4b",
          "logIndex": "0x4e",
          "removed": false
        }
      ],
      "logsBloom": "0x00000000000000400000000000000000000000000000000000000000000000000000000000000000000000000000000800000000000000000004000000000004000000000000000000000000040000000000000000000000000000000000000000000000000000000000000000000040000000000000000000000000000000400000000000000000000000000000000000000000000000000000000000000100000000000000008000000000000000000000000000000000000000000000000000000000000000000000000000000000000000000000000000000200000000000000000000000000000000000000000000000000008000000100000000000000",
      "type": "0x2",
      "transactionHash": "0xb9219a6859ab82043c00f913696a4635571f09d60fff76811259c49830bb2a1c",
      "transactionIndex": "0x4b",
      "blockHash": "0x4bb6682463bb27a360e46115f58a77423d20c3474efb04bcfe12de8aa2181200",
      "blockNumber": "0x9ec969",
      "gasUsed": "0x4ae62",
      "effectiveGasPrice": "0x2517cb7d",
      "from": "0xd4bd9a13058a2ff4da5cf699e51432ada67aa84b",
      "to": "0xbf376784e22ed8662e94f3014d69876435af8990",
      "contractAddress": null
    }
  ],
  "libraries": [],
  "pending": [],
  "returns": {},
  "timestamp": 1772939905262,
  "chain": 11155111,
  "commit": "62616af"
}