{
  "transactions": [
    {
      "hash": "0x93a06cf0f857c6d1554c25dafa364d3cbd983417828cbbe2e620392427a93a35",
      "transactionType": "CALL",
      "contractName": null,
      "contractAddress": "0x779877a7b0d9e8603169ddbd7836e478b4624789",
      "function": "approve(address,uint256)",
      "arguments": [
        "0x0BF3dE8c5D3e8A2B34D2BEeB17ABfCeBaf363A59",
        "26882271845657371"
      ],
      "transaction": {
        "from": "0xd4bd9a13058a2ff4da5cf699e51432ada67aa84b",
        "to": "0x779877a7b0d9e8603169ddbd7836e478b4624789",
        "gas": "0x1081f",
        "value": "0x0",
        "input": "0x095ea7b30000000000000000000000000bf3de8c5d3e8a2b34d2beeb17abfcebaf363a59000000000000000000000000000000000000000000000000005f8148a81dab1b",
        "nonce": "0x4e",
        "chainId": "0xaa36a7"
      },
      "additionalContracts": [],
      "isFixedGasLimit": false
    },
    {
      "hash": "0x0b0428234828d4b9c88627f151f6341f89fd8febdbf0451dfd796bcf647c8c21",
      "transactionType": "CALL",
      "contractName": null,
      "contractAddress": "0x0cc34c65f544e4852a4123254803c2cd02c3b6e4",
      "function": "approve(address,uint256)",
      "arguments": [
        "0x0BF3dE8c5D3e8A2B34D2BEeB17ABfCeBaf363A59",
        "100000"
      ],
      "transaction": {
        "from": "0xd4bd9a13058a2ff4da5cf699e51432ada67aa84b",
        "to": "0x0cc34c65f544e4852a4123254803c2cd02c3b6e4",
        "gas": "0x115b2",
        "value": "0x0",
        "input": "0x095ea7b30000000000000000000000000bf3de8c5d3e8a2b34d2beeb17abfcebaf363a5900000000000000000000000000000000000000000000000000000000000186a0",
        "nonce": "0x4f",
        "chainId": "0xaa36a7"
      },
      "additionalContracts": [],
      "isFixedGasLimit": false
    },
    {
      "hash": "0xee3d9e73fb7fecdea1fd9e004d9b7727cc53cdc83f2cd7e43dd5696949e33233",
      "transactionType": "CALL",
      "contractName": null,
      "contractAddress": "0x0bf3de8c5d3e8a2b34d2beeb17abfcebaf363a59",
      "function": "ccipSend(uint64,(bytes,bytes,(address,uint256)[],address,bytes))",
      "arguments": [
        "6898391096552792247",
        "(0x000000000000000000000000d4bd9a13058a2ff4da5cf699e51432ada67aa84b, 0x, [(0x0cc34C65F544E4852a4123254803c2CD02C3b6e4, 100000)], 0x779877A7B0D9E8603169DdbD7836e478b4624789, 0x97a657c90000000000000000000000000000000000000000000000000000000000000000)"
      ],
      "transaction": {
        "from": "0xd4bd9a13058a2ff4da5cf699e51432ada67aa84b",
        "to": "0x0bf3de8c5d3e8a2b34d2beeb17abfcebaf363a59",
        "gas": "0x69d7b",
        "value": "0x0",
        "input": "0x96f4e9f90000000000000000000000000000000000000000000000005fbc02272fbf20b7000000000000000000000000000000000000000000000000000000000000004000000000000000000000000000000000000000000000000000000000000000a000000000000000000000000000000000000000000000000000000000000000e00000000000000000000000000000000000000000000000000000000000000100000000000000000000000000779877a7b0d9e8603169ddbd7836e478b462478900000000000000000000000000000000000000000000000000000000000001600000000000000000000000000000000000000000000000000000000000000020000000000000000000000000d4bd9a13058a2ff4da5cf699e51432ada67aa84b000000000000000000000000000000000000000000000000000000000000000000000000000000000000000000000000000000000000000000000000000000010000000000000000000000000cc34c65f544e4852a4123254803c2cd02c3b6e400000000000000000000000000000000000000000000000000000000000186a0000000000000000000000000000000000000000000000000000000000000002497a657c9000000000000000000000000000000000000000000000000000000000000000000000000000000000000000000000000000000000000000000000000",
        "nonce": "0x50",
        "chainId": "0xaa36a7"
      },
      "additionalContracts": [],
      "isFixedGasLimit": false
    }
  ],
  "receipts": [
    {
      "status": "0x1",
      "cumulativeGasUsed": "0x17be95c",
      "logs": [
        {
          "address": "0x779877a7b0d9e8603169ddbd7836e478b4624789",
          "topics": [
            "0x8c5be1e5ebec7d5bd14f71427d1e84f3dd0314c0f7b2291e5b200ac8c7c3b925",
            "0x000000000000000000000000d4bd9a13058a2ff4da5cf699e51432ada67aa84b",
            "0x0000000000000000000000000bf3de8c5d3e8a2b34d2beeb17abfcebaf363a59"
          ],
          "data": "0x000000000000000000000000000000000000000000000000005f8148a81dab1b",
          "blockHash": "0x801a696ff1a2bc7535395e1cc966f1b76080a4310f3237a07ae7d66bd38e907d",
          "blockNumber": "0x9e97ed",
          "blockTimestamp": "0x69aa4078",
          "transactionHash": "0x0b0428234828d4b9c88627f151f6341f89fd8febdbf0451dfd796bcf647c8c21",
          "transactionIndex": "0x9f",
          "logIndex": "0x1f5",
          "removed": false
        }
      ],
      "logsBloom": "0x00000004000040000000000000000000000000000000000000000000000000000000000000000000000000000000000000000000000000000000000000200000000000400000000000000000000000000000000000000000000000000000000080000000000100000000000000000000000000000000000000000000000000000000000000000000000000000000800000000000000000000000000000000000020000000000080000000000000000000000000000000000000000000000200000000000000000000000000000000000000000000000000100000000000000000010000000000000000000000000000000000000000000000000000000000000",
      "type": "0x2",
      "transactionHash": "0x0b0428234828d4b9c88627f151f6341f89fd8febdbf0451dfd796bcf647c8c21",
      "transactionIndex": "0x9f",
      "blockHash": "0x801a696ff1a2bc7535395e1cc966f1b76080a4310f3237a07ae7d66bd38e907d",
      "blockNumber": "0x9e97ed",
      "gasUsed": "0xb499",
      "effectiveGasPrice": "0x1c2f76",
      "from": "0xd4bd9a13058a2ff4da5cf699e51432ada67aa84b",
      "to": "0x779877a7b0d9e8603169ddbd7836e478b4624789",
      "contractAddress": null
    },
    {
      "status": "0x1",
      "cumulativeGasUsed": "0x17ca73d",
      "logs": [
        {
          "address": "0x0cc34c65f544e4852a4123254803c2cd02c3b6e4",
          "topics": [
            "0x8c5be1e5ebec7d5bd14f71427d1e84f3dd0314c0f7b2291e5b200ac8c7c3b925",
            "0x000000000000000000000000d4bd9a13058a2ff4da5cf699e51432ada67aa84b",
            "0x0000000000000000000000000bf3de8c5d3e8a2b34d2beeb17abfcebaf363a59"
          ],
          "data": "0x00000000000000000000000000000000000000000000000000000000000186a0",
          "blockHash": "0x801a696ff1a2bc7535395e1cc966f1b76080a4310f3237a07ae7d66bd38e907d",
          "blockNumber": "0x9e97ed",
          "blockTimestamp": "0x69aa4078",
          "transactionHash": "0x93a06cf0f857c6d1554c25dafa364d3cbd983417828cbbe2e620392427a93a35",
          "transactionIndex": "0xa0",
          "logIndex": "0x1f6",
          "removed": false
        }
      ],
      "logsBloom": "0x00000000000040000000000000000000000000000000000000000000000000000000000000000000400000000000000000000000000000000000000000200000000000400000000000000000000000000000000000000000000000000000200080000000000100000000000000000000000000000000000000000000000000000000000000000000000000000000000000000000000000000000000000000000020000000000080000000000000000000000000000000000000000000100200000000000000000000000000000000000000000000000000000000000000000000010000000000000000000000000000000000000000000000000000000000000",
      "type": "0x2",
      "transactionHash": "0x93a06cf0f857c6d1554c25dafa364d3cbd983417828cbbe2e620392427a93a35",
      "transactionIndex": "0xa0",
      "blockHash": "0x801a696ff1a2bc7535395e1cc966f1b76080a4310f3237a07ae7d66bd38e907d",
      "blockNumber": "0x9e97ed",
      "gasUsed": "0xbde1",
      "effectiveGasPrice": "0x1c2f76",
      "from": "0xd4bd9a13058a2ff4da5cf699e51432ada67aa84b",
      "to": "0x0cc34c65f544e4852a4123254803c2cd02c3b6e4",
      "contractAddress": null
    },
    {
      "status": "0x1",
      "cumulativeGasUsed": "0x181714b",
      "logs": [
        {
          "address": "0x779877a7b0d9e8603169ddbd7836e478b4624789",
          "topics": [
            "0xddf252ad1be2c89b69c2b068fc378daa952ba7f163c4a11628f55a4df523b3ef",
            "0x000000000000000000000000d4bd9a13058a2ff4da5cf699e51432ada67aa84b",
            "0x000000000000000000000000a2865e4f36760f5fa5c8f958336120f2df0d974b"
          ],
          "data": "0x000000000000000000000000000000000000000000000000005f8148a81dab1b",
          "blockHash": "0x801a696ff1a2bc7535395e1cc966f1b76080a4310f3237a07ae7d66bd38e907d",
          "blockNumber": "0x9e97ed",
          "blockTimestamp": "0x69aa4078",
          "transactionHash": "0xee3d9e73fb7fecdea1fd9e004d9b7727cc53cdc83f2cd7e43dd5696949e33233",
          "transactionIndex": "0xa1",
          "logIndex": "0x1f7",
          "removed": false
        },
        {
          "address": "0x779877a7b0d9e8603169ddbd7836e478b4624789",
          "topics": [
            "0x8c5be1e5ebec7d5bd14f71427d1e84f3dd0314c0f7b2291e5b200ac8c7c3b925",
            "0x000000000000000000000000d4bd9a13058a2ff4da5cf699e51432ada67aa84b",
            "0x0000000000000000000000000bf3de8c5d3e8a2b34d2beeb17abfcebaf363a59"
          ],
          "data": "0x0000000000000000000000000000000000000000000000000000000000000000",
          "blockHash": "0x801a696ff1a2bc7535395e1cc966f1b76080a4310f3237a07ae7d66bd38e907d",
          "blockNumber": "0x9e97ed",
          "blockTimestamp": "0x69aa4078",
          "transactionHash": "0xee3d9e73fb7fecdea1fd9e004d9b7727cc53cdc83f2cd7e43dd5696949e33233",
          "transactionIndex": "0xa1",
          "logIndex": "0x1f8",
          "removed": false
        },
        {
          "address": "0x0cc34c65f544e4852a4123254803c2cd02c3b6e4",
          "topics": [
            "0xddf252ad1be2c89b69c2b068fc378daa952ba7f163c4a11628f55a4df523b3ef",
            "0x0000000000000000000000000000000000000000000000000000000000000000",
            "0x000000000000000000000000d4bd9a13058a2ff4da5cf699e51432ada67aa84b"
          ],
          "data": "0x0000000000000000000000000000000000000000000000000000000000000024",
          "blockHash": "0x801a696ff1a2bc7535395e1cc966f1b76080a4310f3237a07ae7d66bd38e907d",
          "blockNumber": "0x9e97ed",
          "blockTimestamp": "0x69aa4078",
          "transactionHash": "0xee3d9e73fb7fecdea1fd9e004d9b7727cc53cdc83f2cd7e43dd5696949e33233",
          "transactionIndex": "0xa1",
          "logIndex": "0x1f9",
          "removed": false
        },
        {
          "address": "0x0cc34c65f544e4852a4123254803c2cd02c3b6e4",
          "topics": [
            "0xddf252ad1be2c89b69c2b068fc378daa952ba7f163c4a11628f55a4df523b3ef",
            "0x0000000000000000000000000000000000000000000000000000000000000000",
            "0x000000000000000000000000ba2d3e3e54c17fb3344c5d433af39bf2e01fe91f"
          ],
          "data": "0x0000000000000000000000000000000000000000000000000000000000000000",
          "blockHash": "0x801a696ff1a2bc7535395e1cc966f1b76080a4310f3237a07ae7d66bd38e907d",
          "blockNumber": "0x9e97ed",
          "blockTimestamp": "0x69aa4078",
          "transactionHash": "0xee3d9e73fb7fecdea1fd9e004d9b7727cc53cdc83f2cd7e43dd5696949e33233",
          "transactionIndex": "0xa1",
          "logIndex": "0x1fa",
          "removed": false
        },
        {
          "address": "0x0cc34c65f544e4852a4123254803c2cd02c3b6e4",
          "topics": [
            "0xddf252ad1be2c89b69c2b068fc378daa952ba7f163c4a11628f55a4df523b3ef",
            "0x000000000000000000000000d4bd9a13058a2ff4da5cf699e51432ada67aa84b",
            "0x000000000000000000000000ba2d3e3e54c17fb3344c5d433af39bf2e01fe91f"
          ],
          "data": "0x00000000000000000000000000000000000000000000000000000000000186a0",
          "blockHash": "0x801a696ff1a2bc7535395e1cc966f1b76080a4310f3237a07ae7d66bd38e907d",
          "blockNumber": "0x9e97ed",
          "blockTimestamp": "0x69aa4078",
          "transactionHash": "0xee3d9e73fb7fecdea1fd9e004d9b7727cc53cdc83f2cd7e43dd5696949e33233",
          "transactionIndex": "0xa1",
          "logIndex": "0x1fb",
          "removed": false
        },
        {
          "address": "0xba2d3e3e54c17fb3344c5d433af39bf2e01fe91f",
          "topics": [
            "0xff0133389f9bb82d5b9385826160eaf2328039f6fa950eeb8cf0836da8178944",
            "0x0000000000000000000000000000000000000000000000005fbc02272fbf20b7"
          ],
          "data": "0x0000000000000000000000000cc34c65f544e4852a4123254803c2cd02c3b6e400000000000000000000000000000000000000000000000000000000000186a0",
          "blockHash": "0x801a696ff1a2bc7535395e1cc966f1b76080a4310f3237a07ae7d66bd38e907d",
          "blockNumber": "0x9e97ed",
          "blockTimestamp": "0x69aa4078",
          "transactionHash": "0xee3d9e73fb7fecdea1fd9e004d9b7727cc53cdc83f2cd7e43dd5696949e33233",
          "transactionIndex": "0xa1",
          "logIndex": "0x1fc",
          "removed": false
        },
        {
          "address": "0x0cc34c65f544e4852a4123254803c2cd02c3b6e4",
          "topics": [
            "0xddf252ad1be2c89b69c2b068fc378daa952ba7f163c4a11628f55a4df523b3ef",
            "0x0000000000000000000000000000000000000000000000000000000000000000",
            "0x000000000000000000000000ba2d3e3e54c17fb3344c5d433af39bf2e01fe91f"
          ],
          "data": "0x0000000000000000000000000000000000000000000000000000000000000000",
          "blockHash": "0x801a696ff1a2bc7535395e1cc966f1b76080a4310f3237a07ae7d66bd38e907d",
          "blockNumber": "0x9e97ed",
          "blockTimestamp": "0x69aa4078",
          "transactionHash": "0xee3d9e73fb7fecdea1fd9e004d9b7727cc53cdc83f2cd7e43dd5696949e33233",
          "transactionIndex": "0xa1",
          "logIndex": "0x1fd",
          "removed": false
        },
        {
          "address": "0x0cc34c65f544e4852a4123254803c2cd02c3b6e4",
          "topics": [
            "0xddf252ad1be2c89b69c2b068fc378daa952ba7f163c4a11628f55a4df523b3ef",
            "0x000000000000000000000000ba2d3e3e54c17fb3344c5d433af39bf2e01fe91f",
            "0x0000000000000000000000000000000000000000000000000000000000000000"
          ],
          "data": "0x00000000000000000000000000000000000000000000000000000000000186a0",
          "blockHash": "0x801a696ff1a2bc7535395e1cc966f1b76080a4310f3237a07ae7d66bd38e907d",
          "blockNumber": "0x9e97ed",
          "blockTimestamp": "0x69aa4078",
          "transactionHash": "0xee3d9e73fb7fecdea1fd9e004d9b7727cc53cdc83f2cd7e43dd5696949e33233",
          "transactionIndex": "0xa1",
          "logIndex": "0x1fe",
          "removed": false
        },
        {
          "address": "0xa2865e4f36760f5fa5c8f958336120f2df0d974b",
          "topics": [
            "0xd0c3c799bf9e2639de44391e7f524d229b2b55f5b1ea94b2bf7da42f7243dddd"
          ],
          "data": "0x0000000000000000000000000000000000000000000000000000000000000020000000000000000000000000000000000000000000000000de41ba4fc9d91ad9000000000000000000000000d4bd9a13058a2ff4da5cf699e51432ada67aa84b000000000000000000000000d4bd9a13058a2ff4da5cf699e51432ada67aa84b0000000000000000000000000000000000000000000000000000000000000354000000000000000000000000000000000000000000000000000000000000000000000000000000000000000000000000000000000000000000000000000000000000000000000000000000000000000000000000000000000000000000000001000000000000000000000000779877a7b0d9e8603169ddbd7836e478b4624789000000000000000000000000000000000000000000000000005f8148a81dab1b00000000000000000000000000000000000000000000000000000000000001a000000000000000000000000000000000000000000000000000000000000001c000000000000000000000000000000000000000000000000000000000000002203fb469f5f72f795d8ef15d3e43dae88dc0d96ec64d8450c82ec7efb14faaabf4000000000000000000000000000000000000000000000000000000000000000000000000000000000000000000000000000000000000000000000000000000010000000000000000000000000cc34c65f544e4852a4123254803c2cd02c3b6e400000000000000000000000000000000000000000000000000000000000186a00000000000000000000000000000000000000000000000000000000000000001000000000000000000000000000000000000000000000000000000000000002000000000000000000000000000000000000000000000000000000000000001600000000000000000000000000000000000000000000000000000000000000020000000000000000000000000000000000000000000000000000000000000008000000000000000000000000000000000000000000000000000000000000000c000000000000000000000000000000000000000000000000000000000000001000000000000000000000000000000000000000000000000000000000000015f900000000000000000000000000000000000000000000000000000000000000020000000000000000000000000ba2d3e3e54c17fb3344c5d433af39bf2e01fe91f00000000000000000000000000000000000000000000000000000000000000200000000000000000000000000b24ed66b4bd34d6c9bf070f108b8e4b2786a06b00000000000000000000000000000000000000000000000000000000000000200000000000000000000000000000000000000000000000000000000ba43b7400",
          "blockHash": "0x801a696ff1a2bc7535395e1cc966f1b76080a4310f3237a07ae7d66bd38e907d",
          "blockNumber": "0x9e97ed",
          "blockTimestamp": "0x69aa4078",
          "transactionHash": "0xee3d9e73fb7fecdea1fd9e004d9b7727cc53cdc83f2cd7e43dd5696949e33233",
          "transactionIndex": "0xa1",
          "logIndex": "0x1ff",
          "removed": false
        }
      ],
      "logsBloom": "0x00000004000040000000000000000000000000000000000000000000000000000000008000000100400000000000000000000100000000000000000000200000000000400000000000000008040000000000000000000000000000000000200090000000420100000000000000002840000000000000100000000010000000000000000000000000000000000000800000000000000000000000000000000000020000000000088400000000010000040000000000000000000100010100300000000002000000000000000000000000000000000100000100000000000020000010800000000000000000010000000004000800000000000000000000000000",
      "type": "0x2",
      "transactionHash": "0xee3d9e73fb7fecdea1fd9e004d9b7727cc53cdc83f2cd7e43dd5696949e33233",
      "transactionIndex": "0xa1",
      "blockHash": "0x801a696ff1a2bc7535395e1cc966f1b76080a4310f3237a07ae7d66bd38e907d",
      "blockNumber": "0x9e97ed",
      "gasUsed": "0x4ca0e",
      "effectiveGasPrice": "0x1c2f76",
      "from": "0xd4bd9a13058a2ff4da5cf699e51432ada67aa84b",
      "to": "0x0bf3de8c5d3e8a2b34d2beeb17abfcebaf363a59",
      "contractAddress": null
    }
  ],
  "libraries": [],
  "pending": [],
  "returns": {},
  "timestamp": 1772765305274,
  "chain": 11155111,
  "commit": "b188a7d"
}