{
  "transactions": [
    {
      "hash": "0xa391c3bc38d0b0847c63d3e46944d8e4afdd0665580fc791825b231ce9cca030",
      "transactionType": "CALL",
      "contractName": null,
      "contractAddress": "0x779877a7b0d9e8603169ddbd7836e478b4624789",
      "function": "approve(address,uint256)",
      "arguments": [
        "0x0BF3dE8c5D3e8A2B34D2BEeB17ABfCeBaf363A59",
        "29223853438830362"
      ],
      "transaction": {
        "from": "0xd4bd9a13058a2ff4da5cf699e51432ada67aa84b",
        "to": "0x779877a7b0d9e8603169ddbd7836e478b4624789",
        "gas": "0x1081f",
        "value": "0x0",
        "input": "0x095ea7b30000000000000000000000000bf3de8c5d3e8a2b34d2beeb17abfcebaf363a590000000000000000000000000000000000000000000000000067d2f09b30871a",
        "nonce": "0x95",
        "chainId": "0xaa36a7"
      },
      "additionalContracts": [],
      "isFixedGasLimit": false
    },
    {
      "hash": "0x49b3e41edbc6c5d5c659a379d02f6b7cfd7c97b70fcdef3f98ab1149fe351c3a",
      "transactionType": "CALL",
      "contractName": null,
      "contractAddress": "0xb94c48717f64a989fb575ccae95785e7ecfdddf2",
      "function": "approve(address,uint256)",
      "arguments": [
        "0x0BF3dE8c5D3e8A2B34D2BEeB17ABfCeBaf363A59",
        "100000"
      ],
      "transaction": {
        "from": "0xd4bd9a13058a2ff4da5cf699e51432ada67aa84b",
        "to": "0xb94c48717f64a989fb575ccae95785e7ecfdddf2",
        "gas": "0xf8eb",
        "value": "0x0",
        "input": "0x095ea7b30000000000000000000000000bf3de8c5d3e8a2b34d2beeb17abfcebaf363a5900000000000000000000000000000000000000000000000000000000000186a0",
        "nonce": "0x96",
        "chainId": "0xaa36a7"
      },
      "additionalContracts": [],
      "isFixedGasLimit": false
    },
    {
      "hash": "0x186ebc82f7270eff06b75eed206b1e8c48cce0da7af61011dddd3e0925f86f91",
      "transactionType": "CALL",
      "contractName": null,
      "contractAddress": "0x0bf3de8c5d3e8a2b34d2beeb17abfcebaf363a59",
      "function": "ccipSend(uint64,(bytes,bytes,(address,uint256)[],address,bytes))",
      "arguments": [
        "6898391096552792247",
        "(0x000000000000000000000000d4bd9a13058a2ff4da5cf699e51432ada67aa84b, 0x, [(0xb94c48717F64A989fb575CCae95785e7ECfDddf2, 100000)], 0x779877A7B0D9E8603169DdbD7836e478b4624789, 0x97a657c90000000000000000000000000000000000000000000000000000000000030d40)"
      ],
      "transaction": {
        "from": "0xd4bd9a13058a2ff4da5cf699e51432ada67aa84b",
        "to": "0x0bf3de8c5d3e8a2b34d2beeb17abfcebaf363a59",
        "gas": "0x5403c",
        "value": "0x0",
        "input": "0x96f4e9f90000000000000000000000000000000000000000000000005fbc02272fbf20b7000000000000000000000000000000000000000000000000000000000000004000000000000000000000000000000000000000000000000000000000000000a000000000000000000000000000000000000000000000000000000000000000e00000000000000000000000000000000000000000000000000000000000000100000000000000000000000000779877a7b0d9e8603169ddbd7836e478b462478900000000000000000000000000000000000000000000000000000000000001600000000000000000000000000000000000000000000000000000000000000020000000000000000000000000d4bd9a13058a2ff4da5cf699e51432ada67aa84b00000000000000000000000000000000000000000000000000000000000000000000000000000000000000000000000000000000000000000000000000000001000000000000000000000000b94c48717f64a989fb575ccae95785e7ecfdddf200000000000000000000000000000000000000000000000000000000000186a0000000000000000000000000000000000000000000000000000000000000002497a657c90000000000000000000000000000000000000000000000000000000000030d4000000000000000000000000000000000000000000000000000000000",
        "nonce": "0x97",
        "chainId": "0xaa36a7"
      },
      "additionalContracts": [],
      "isFixedGasLimit": false
    }
  ],
  "receipts": [
    {
      "status": "0x1",
      "cumulativeGasUsed": "0x18ef3fd",
      "logs": [
        {
          "address": "0x779877a7b0d9e8603169ddbd7836e478b4624789",
          "topics": [
            "0x8c5be1e5ebec7d5bd14f71427d1e84f3dd0314c0f7b2291e5b200ac8c7c3b925",
            "0x000000000000000000000000d4bd9a13058a2ff4da5cf699e51432ada67aa84b",
            "0x0000000000000000000000000bf3de8c5d3e8a2b34d2beeb17abfcebaf363a59"
          ],
          "data": "0x0000000000000000000000000000000000000000000000000067d2f09b30871a",
          "blockHash": "0xf6eb7e40e386a589c698d26329af47d911548f76746afef39ce2365b1afd5aa9",
          "blockNumber": "0x9ec96f",
          "blockTimestamp": "0x69aceb10",
          "transactionHash": "0xa391c3bc38d0b0847c63d3e46944d8e4afdd0665580fc791825b231ce9cca030",
          "transactionIndex": "0xc3",
          "logIndex": "0x12d",
          "removed": false
        }
      ],
      "logsBloom": "0x00000004000040000000000000000000000000000000000000000000000000000000000000000000000000000000000000000000000000000000000000200000000000400000000000000000000000000000000000000000000000000000000080000000000100000000000000000000000000000000000000000000000000000000000000000000000000000000800000000000000000000000000000000000020000000000080000000000000000000000000000000000000000000000200000000000000000000000000000000000000000000000000100000000000000000010000000000000000000000000000000000000000000000000000000000000",
      "type": "0x2",
      "transactionHash": "0xa391c3bc38d0b0847c63d3e46944d8e4afdd0665580fc791825b231ce9cca030",
      "transactionIndex": "0xc3",
      "blockHash": "0xf6eb7e40e386a589c698d26329af47d911548f76746afef39ce2365b1afd5aa9",
      "blockNumber": "0x9ec96f",
      "gasUsed": "0xb499",
      "effectiveGasPrice": "0x217ee0ec",
      "from": "0xd4bd9a13058a2ff4da5cf699e51432ada67aa84b",
      "to": "0x779877a7b0d9e8603169ddbd7836e478b4624789",
      "contractAddress": null
    },
    {
      "status": "0x1",
      "cumulativeGasUsed": "0x18fa834",
      "logs": [
        {
          "address": "0xb94c48717f64a989fb575ccae95785e7ecfdddf2",
          "topics": [
            "0x8c5be1e5ebec7d5bd14f71427d1e84f3dd0314c0f7b2291e5b200ac8c7c3b925",
            "0x000000000000000000000000d4bd9a13058a2ff4da5cf699e51432ada67aa84b",
            "0x0000000000000000000000000bf3de8c5d3e8a2b34d2beeb17abfcebaf363a59"
          ],
          "data": "0x00000000000000000000000000000000000000000000000000000000000186a0",
          "blockHash": "0xf6eb7e40e386a589c698d26329af47d911548f76746afef39ce2365b1afd5aa9",
          "blockNumber": "0x9ec96f",
          "blockTimestamp": "0x69aceb10",
          "transactionHash": "0x49b3e41edbc6c5d5c659a379d02f6b7cfd7c97b70fcdef3f98ab1149fe351c3a",
          "transactionIndex": "0xc4",
          "logIndex": "0x12e",
          "removed": false
        }
      ],
      "logsBloom": "0x00000000000040000000000000000000000000000000000000000000000000000000000000000000000000000000000000000000000000000000000000200000000000400000000000000000000000000000000000000000000000000000000080000000000100000000000000000000000000000000000000000000000000000000000000000000000000000000000000000000100000000000000000000000020000010000080000000000000000000000000000000000000000100000200000000000000000000000000000000000000000000000000000000000000000000010000000000000000000000000000000000000000000000000000000000000",
      "type": "0x2",
      "transactionHash": "0x49b3e41edbc6c5d5c659a379d02f6b7cfd7c97b70fcdef3f98ab1149fe351c3a",
      "transactionIndex": "0xc4",
      "blockHash": "0xf6eb7e40e386a589c698d26329af47d911548f76746afef39ce2365b1afd5aa9",
      "blockNumber": "0x9ec96f",
      "gasUsed": "0xb437",
      "effectiveGasPrice": "0x217ee0ec",
      "from": "0xd4bd9a13058a2ff4da5cf699e51432ada67aa84b",
      "to": "0xb94c48717f64a989fb575ccae95785e7ecfdddf2",
      "contractAddress": null
    },
    {
      "status": "0x1",
      "cumulativeGasUsed": "0x1933f57",
      "logs": [
        {
          "address": "0x779877a7b0d9e8603169ddbd7836e478b4624789",
          "topics": [
            "0xddf252ad1be2c89b69c2b068fc378daa952ba7f163c4a11628f55a4df523b3ef",
            "0x000000000000000000000000d4bd9a13058a2ff4da5cf699e51432ada67aa84b",
            "0x000000000000000000000000a2865e4f36760f5fa5c8f958336120f2df0d974b"
          ],
          "data": "0x0000000000000000000000000000000000000000000000000067d2f09b30871a",
          "blockHash": "0xf6eb7e40e386a589c698d26329af47d911548f76746afef39ce2365b1afd5aa9",
          "blockNumber": "0x9ec96f",
          "blockTimestamp": "0x69aceb10",
          "transactionHash": "0x186ebc82f7270eff06b75eed206b1e8c48cce0da7af61011dddd3e0925f86f91",
          "transactionIndex": "0xc5",
          "logIndex": "0x12f",
          "removed": false
        },
        {
          "address": "0x779877a7b0d9e8603169ddbd7836e478b4624789",
          "topics": [
            "0x8c5be1e5ebec7d5bd14f71427d1e84f3dd0314c0f7b2291e5b200ac8c7c3b925",
            "0x000000000000000000000000d4bd9a13058a2ff4da5cf699e51432ada67aa84b",
            "0x0000000000000000000000000bf3de8c5d3e8a2b34d2beeb17abfcebaf363a59"
          ],
          "data": "0x0000000000000000000000000000000000000000000000000000000000000000",
          "blockHash": "0xf6eb7e40e386a589c698d26329af47d911548f76746afef39ce2365b1afd5aa9",
          "blockNumber": "0x9ec96f",
          "blockTimestamp": "0x69aceb10",
          "transactionHash": "0x186ebc82f7270eff06b75eed206b1e8c48cce0da7af61011dddd3e0925f86f91",
          "transactionIndex": "0xc5",
          "logIndex": "0x130",
          "removed": false
        },
        {
          "address": "0xb94c48717f64a989fb575ccae95785e7ecfdddf2",
          "topics": [
            "0xddf252ad1be2c89b69c2b068fc378daa952ba7f163c4a11628f55a4df523b3ef",
            "0x0000000000000000000000000000000000000000000000000000000000000000",
            "0x000000000000000000000000d4bd9a13058a2ff4da5cf699e51432ada67aa84b"
          ],
          "data": "0x0000000000000000000000000000000000000000000000000000000000000000",
          "blockHash": "0xf6eb7e40e386a589c698d26329af47d911548f76746afef39ce2365b1afd5aa9",
          "blockNumber": "0x9ec96f",
          "blockTimestamp": "0x69aceb10",
          "transactionHash": "0x186ebc82f7270eff06b75eed206b1e8c48cce0da7af61011dddd3e0925f86f91",
          "transactionIndex": "0xc5",
          "logIndex": "0x131",
          "removed": false
        },
        {
          "address": "0xb94c48717f64a989fb575ccae95785e7ecfdddf2",
          "topics": [
            "0xddf252ad1be2c89b69c2b068fc378daa952ba7f163c4a11628f55a4df523b3ef",
            "0x0000000000000000000000000000000000000000000000000000000000000000",
            "0x000000000000000000000000bf376784e22ed8662e94f3014d69876435af8990"
          ],
          "data": "0x0000000000000000000000000000000000000000000000000000000000000000",
          "blockHash": "0xf6eb7e40e386a589c698d26329af47d911548f76746afef39ce2365b1afd5aa9",
          "blockNumber": "0x9ec96f",
          "blockTimestamp": "0x69aceb10",
          "transactionHash": "0x186ebc82f7270eff06b75eed206b1e8c48cce0da7af61011dddd3e0925f86f91",
          "transactionIndex": "0xc5",
          "logIndex": "0x132",
          "removed": false
        },
        {
          "address": "0xb94c48717f64a989fb575ccae95785e7ecfdddf2",
          "topics": [
            "0xddf252ad1be2c89b69c2b068fc378daa952ba7f163c4a11628f55a4df523b3ef",
            "0x000000000000000000000000d4bd9a13058a2ff4da5cf699e51432ada67aa84b",
            "0x000000000000000000000000bf376784e22ed8662e94f3014d69876435af8990"
          ],
          "data": "0x00000000000000000000000000000000000000000000000000000000000186a0",
          "blockHash": "0xf6eb7e40e386a589c698d26329af47d911548f76746afef39ce2365b1afd5aa9",
          "blockNumber": "0x9ec96f",
          "blockTimestamp": "0x69aceb10",
          "transactionHash": "0x186ebc82f7270eff06b75eed206b1e8c48cce0da7af61011dddd3e0925f86f91",
          "transactionIndex": "0xc5",
          "logIndex": "0x133",
          "removed": false
        },
        {
          "address": "0xbf376784e22ed8662e94f3014d69876435af8990",
          "topics": [
            "0xff0133389f9bb82d5b9385826160eaf2328039f6fa950eeb8cf0836da8178944",
            "0x0000000000000000000000000000000000000000000000005fbc02272fbf20b7"
          ],
          "data": "0x000000000000000000000000b94c48717f64a989fb575ccae95785e7ecfdddf200000000000000000000000000000000000000000000000000000000000186a0",
          "blockHash": "0xf6eb7e40e386a589c698d26329af47d911548f76746afef39ce2365b1afd5aa9",
          "blockNumber": "0x9ec96f",
          "blockTimestamp": "0x69aceb10",
          "transactionHash": "0x186ebc82f7270eff06b75eed206b1e8c48cce0da7af61011dddd3e0925f86f91",
          "transactionIndex": "0xc5",
          "logIndex": "0x134",
          "removed": false
        },
        {
          "address": "0xb94c48717f64a989fb575ccae95785e7ecfdddf2",
          "topics": [
            "0xddf252ad1be2c89b69c2b068fc378daa952ba7f163c4a11628f55a4df523b3ef",
            "0x0000000000000000000000000000000000000000000000000000000000000000",
            "0x000000000000000000000000bf376784e22ed8662e94f3014d69876435af8990"
          ],
          "data": "0x0000000000000000000000000000000000000000000000000000000000000000",
          "blockHash": "0xf6eb7e40e386a589c698d26329af47d911548f76746afef39ce2365b1afd5aa9",
          "blockNumber": "0x9ec96f",
          "blockTimestamp": "0x69aceb10",
          "transactionHash": "0x186ebc82f7270eff06b75eed206b1e8c48cce0da7af61011dddd3e0925f86f91",
          "transactionIndex": "0xc5",
          "logIndex": "0x135",
          "removed": false
        },
        {
          "address": "0xb94c48717f64a989fb575ccae95785e7ecfdddf2",
          "topics": [
            "0xddf252ad1be2c89b69c2b068fc378daa952ba7f163c4a11628f55a4df523b3ef",
            "0x000000000000000000000000bf376784e22ed8662e94f3014d69876435af8990",
            "0x0000000000000000000000000000000000000000000000000000000000000000"
          ],
          "data": "0x00000000000000000000000000000000000000000000000000000000000186a0",
          "blockHash": "0xf6eb7e40e386a589c698d26329af47d911548f76746afef39ce2365b1afd5aa9",
          "blockNumber": "0x9ec96f",
          "blockTimestamp": "0x69aceb10",
          "transactionHash": "0x186ebc82f7270eff06b75eed206b1e8c48cce0da7af61011dddd3e0925f86f91",
          "transactionIndex": "0xc5",
          "logIndex": "0x136",
          "removed": false
        },
        {
          "address": "0xa2865e4f36760f5fa5c8f958336120f2df0d974b",
          "topics": [
            "0xd0c3c799bf9e2639de44391e7f524d229b2b55f5b1ea94b2bf7da42f7243dddd"
          ],
          "data": "0x0000000000000000000000000000000000000000000000000000000000000020000000000000000000000000000000000000000000000000de41ba4fc9d91ad9000000000000000000000000d4bd9a13058a2ff4da5cf699e51432ada67aa84b000000000000000000000000d4bd9a13058a2ff4da5cf699e51432ada67aa84b00000000000000000000000000000000000000000000000000000000000003590000000000000000000000000000000000000000000000000000000000030d4000000000000000000000000000000000000000000000000000000000000000000000000000000000000000000000000000000000000000000000000000000006000000000000000000000000779877a7b0d9e8603169ddbd7836e478b46247890000000000000000000000000000000000000000000000000067d2f09b30871a00000000000000000000000000000000000000000000000000000000000001a000000000000000000000000000000000000000000000000000000000000001c00000000000000000000000000000000000000000000000000000000000000220cc2e90b1304d0aa0f2da72cc33ef7def3ce9126c853b811fc53a9452d6b3490f00000000000000000000000000000000000000000000000000000000000000000000000000000000000000000000000000000000000000000000000000000001000000000000000000000000b94c48717f64a989fb575ccae95785e7ecfdddf200000000000000000000000000000000000000000000000000000000000186a00000000000000000000000000000000000000000000000000000000000000001000000000000000000000000000000000000000000000000000000000000002000000000000000000000000000000000000000000000000000000000000001600000000000000000000000000000000000000000000000000000000000000020000000000000000000000000000000000000000000000000000000000000008000000000000000000000000000000000000000000000000000000000000000c000000000000000000000000000000000000000000000000000000000000001000000000000000000000000000000000000000000000000000000000000015f900000000000000000000000000000000000000000000000000000000000000020000000000000000000000000bf376784e22ed8662e94f3014d69876435af89900000000000000000000000000000000000000000000000000000000000000020000000000000000000000000dc95ef05061de480940200c84253e465c26bd26700000000000000000000000000000000000000000000000000000000000000200000000000000000000000000000000000000000000000000000000ba43b7400",
          "blockHash": "0xf6eb7e40e386a589c698d26329af47d911548f76746afef39ce2365b1afd5aa9",
          "blockNumber": "0x9ec96f",
          "blockTimestamp": "0x69aceb10",
          "transactionHash": "0x186ebc82f7270eff06b75eed206b1e8c48cce0da7af61011dddd3e0925f86f91",
          "transactionIndex": "0xc5",
          "logIndex": "0x137",
          "removed": false
        }
      ],
      "logsBloom": "0x00000004000040000000000000000000000000000000000000000000000000000000008000000000000000000000000800000100000000000000000000200000000000400000000000000008040000000000000000000000000000000000000090000000020100000000000000000840000000000000100000000010000000000000000000000000000000000000800000000000100000000000000000000100020000010000088400000000010000000000000000000000000100110000200000000002000000000000000000000000000000000100000100000200000020000010800000000000000000000000000004000a00001000000200000000000000",
      "type": "0x2",
      "transactionHash": "0x186ebc82f7270eff06b75eed206b1e8c48cce0da7af61011dddd3e0925f86f91",
      "transactionIndex": "0xc5",
      "blockHash": "0xf6eb7e40e386a589c698d26329af47d911548f76746afef39ce2365b1afd5aa9",
      "blockNumber": "0x9ec96f",
      "gasUsed": "0x39723",
      "effectiveGasPrice": "0x217ee0ec",
      "from": "0xd4bd9a13058a2ff4da5cf699e51432ada67aa84b",
      "to": "0x0bf3de8c5d3e8a2b34d2beeb17abfcebaf363a59",
      "contractAddress": null
    }
  ],
  "libraries": [],
  "pending": [],
  "returns": {},
  "timestamp": 1772940050103,
  "chain": 11155111,
  "commit": "62616af"
}