{
  "transactions": [
    {
      "hash": "0xc1bae067716052cae6408742899374fb83f14ed5dd2def2335cfea19ca54230e",
      "transactionType": "CREATE",
      "contractName": "Vault",
      "contractAddress": "0x320ce1f252a1e7acd02298ba903d1e71969046de",
      "function": null,
      "arguments": [
        "0xb94c48717F64A989fb575CCae95785e7ECfDddf2"
      ],
      "transaction": {
        "from": "0xd4bd9a13058a2ff4da5cf699e51432ada67aa84b",
        "gas": "0x47b8b",
        "value": "0x0",
        "input": "0x346032576300000386803803809160a039601f60a082019182604052131560305760a0515f1960601c811115603657505b505b5f5ffd5b80608052630000031d8092630000006990396040518161029582015281816101f40152818160ec0152602a0152604051f3fe60806040526003361161018f573615610271575b5f5ffd5b5063292bdab360e11b6080525f1960601c7f00000000000000000000000000000000000000000000000000000000000000001660206080600481845afa156102bc573d90604051602081601f1985601f0116019384604052126101315751630ab714fb60e11b835260448301523460248301525f1960601c331691826004820152813b15610131575f916064915f604051938480930301925af1156102bc577fe1fffcc4923d04b559f4d29a8bfc6cda04eb5b0d3c460751c2402c5c5cc9109c60405134610180565b50346013575f1960601c7f00000000000000000000000000000000000000000000000000000000000000001660805260206080f35b3d604051602081601f1984601f01160192836040521215610138575b5050506013565b51906101d7565b5f604051601f19603f84011681016040528281526020013e610250565b907f222838db2794d11532d940e8dec38ae307ed0b63cd97c233322e221f998767a6915b815260206040518092030190a2005b5f3560e01c6334a4edea811460e05763d0e30db0811460175763db006a7503601357601f6004360313341516156013576004355f1960043514610273575f1960601c33169060805b632770a7eb60e21b81528160248201528260048201525f1960601c7f00000000000000000000000000000000000000000000000000000000000000001690813b6102215750610131565b5f916044915f604051938480930301925af161023d57506102bc565b5f6040515f8184865af1903d8061013f57505b6040519161015c5750905063f8b3a0c160e01b815260046040518092030190fd5b005b506370a0823160e01b6080525f1960601c6020608060248184331694856084527f0000000000000000000000000000000000000000000000000000000000000000165afa610115575b506040513d90815f823efdfea2646970667358221220b614a35c56eb9578c4895d5a39607591f6435d9971fd481680080c76d9b3e0e164736f6c637821736f6c783a302e312e333b736f6c633a302e382e33333b6c6c766d3a312e302e320052000000000000000000000000b94c48717f64a989fb575ccae95785e7ecfdddf2",
        "nonce": "0x91",
        "chainId": "0xaa36a7"
      },
      "additionalContracts": [],
      "isFixedGasLimit": false
    },
    {
      "hash": "0x9e6f76f21d759aed56ab21a9d77e25f3ee218a8cb7c32564e79e31f2c657a5c3",
      "transactionType": "CALL",
      "contractName": null,
      "contractAddress": "0xb94c48717f64a989fb575ccae95785e7ecfdddf2",
      "function": "grantMintAndBurnRole(address)",
      "arguments": [
        "0x320Ce1f252A1E7ACd02298BA903D1e71969046DE"
      ],
      "transaction": {
        "from": "0xd4bd9a13058a2ff4da5cf699e51432ada67aa84b",
        "to": "0xb94c48717f64a989fb575ccae95785e7ecfdddf2",
        "gas": "0x104d3",
        "value": "0x0",
        "input": "0x7cfb3d71000000000000000000000000320ce1f252a1e7acd02298ba903d1e71969046de",
        "nonce": "0x92",
        "chainId": "0xaa36a7"
      },
      "additionalContracts": [],
      "isFixedGasLimit": false
    }
  ],
  "receipts": [
    {
      "status": "0x1",
      "cumulativeGasUsed": "0x4f1ea1",
      "logs": [],
      "logsBloom": "0x00000000000000000000000000000000000000000000000000000000000000000000000000000000000000000000000000000000000000000000000000000000000000000000000000000000000000000000000000000000000000000000000000000000000000000000000000000000000000000000000000000000000000000000000000000000000000000000000000000000000000000000000000000000000000000000000000000000000000000000000000000000000000000000000000000000000000000000000000000000000000000000000000000000000000000000000000000000000000000000000000000000000000000000000000000000",
      "type": "0x2",
      "transactionHash": "0x9e6f76f21d759aed56ab21a9d77e25f3ee218a8cb7c32564e79e31f2c657a5c3",
      "transactionIndex": "0x48",
      "blockHash": "0xb87f6f7e9263a76cc788917ae9b14cd8682efb859858df919714dd2f0af30c9d",
      "blockNumber": "0x9ec966",
      "gasUsed": "0x372ba",
      "effectiveGasPrice": "0x29013a2d",
      "from": "0xd4bd9a13058a2ff4da5cf699e51432ada67aa84b",
      "to": null,
      "contractAddress": "0x320ce1f252a1e7acd02298ba903d1e71969046de"
    },
    {
      "status": "0x1",
      "cumulativeGasUsed": "0x52ccd8",
      "logs": [
        {
          "address": "0xb94c48717f64a989fb575ccae95785e7ecfdddf2",
          "topics": [
            "0x2f8788117e7eff1d82e926ec794901d17c78024a50270940304540a733656f0d",
            "0x7429555b03aa5cf08cc5fc0890c97db295c9cec5e6bb1544bcd7fd1430dae3e2",
            "0x000000000000000000000000320ce1f252a1e7acd02298ba903d1e71969046de",
            "0x000000000000000000000000d4bd9a13058a2ff4da5cf699e51432ada67aa84b"
          ],
          "data": "0x",
          "blockHash": "0xb87f6f7e9263a76cc788917ae9b14cd8682efb859858df919714dd2f0af30c9d",
          "blockNumber": "0x9ec966",
          "blockTimestamp": "0x69acea5c",
          "transactionHash": "0xc1bae067716052cae6408742899374fb83f14ed5dd2def2335cfea19ca54230e",
          "transactionIndex": "0x4b",
          "logIndex": "0x4e",
          "removed": false
        }
      ],
      "logsBloom": "0x00000004000000000000000000000000000000000000000000000000000000000000000000000000000408000000000000000000000000000000000000010000000000400000000000000000000000000000000000000000000000000000000080000000000000000000000000000000000000000000000000000000000000000000000000000000000000000000000000000000100000000000000002000000000000010000000000000000000000000000000000000004001000100000200000000000000000000000000000020000000000000000000100000000000000000000000000000000000000000000000000000000000000000000000000000000",
      "type": "0x2",
      "transactionHash": "0xc1bae067716052cae6408742899374fb83f14ed5dd2def2335cfea19ca54230e",
      "transactionIndex": "0x4b",
      "blockHash": "0xb87f6f7e9263a76cc788917ae9b14cd8682efb859858df919714dd2f0af30c9d",
      "blockNumber": "0x9ec966",
      "gasUsed": "0xbcd6",
      "effectiveGasPrice": "0x29013a2d",
      "from": "0xd4bd9a13058a2ff4da5cf699e51432ada67aa84b",
      "to": "0xb94c48717f64a989fb575ccae95785e7ecfdddf2",
      "contractAddress": null
    }
  ],
  "libraries": [],
  "pending": [],
  "returns": {
    "vault": {
      "internal_type": "contract Vault",
      "value": "0x320Ce1f252A1E7ACd02298BA903D1e71969046DE"
    }
  },
  "timestamp": 1772939869613,
  "chain": 11155111,
  "commit": "62616af"
}